{
  "address": "0xbDBCC850D80096e5ee425d2eE0C84080EE13aea5",
  "abi": [
    {
      "inputs": [],
      "name": "MATH_DIVISION_BY_ZERO",
      "type": "error"
    },
    {
      "inputs": [],
      "name": "MATH_MULTIPLICATION_OVERFLOW",
      "type": "error"
    },
    {
      "inputs": [],
      "name": "T_ADDRESS_ZERO",
      "type": "error"
    },
    {
      "inputs": [],
      "name": "T_BACKUP_ADDRESS_ALREADY_EXISTS",
      "type": "error"
    },
    {
      "inputs": [],
      "name": "T_BACKUP_ADDRESS_IS_OWNER",
      "type": "error"
    },
    {
      "inputs": [],
      "name": "T_CANCELED",
      "type": "error"
    },
    {
      "inputs": [],
      "name": "T_INHERITANCE_PERCENTAGE_EXCEEDED",
      "type": "error"
    },
    {
      "inputs": [],
      "name": "T_NO_TRANSCENDENCE",
      "type": "error"
    },
    {
      "inputs": [],
      "name": "T_SUCCEEDED",
      "type": "error"
    },
    {
      "inputs": [],
      "name": "T_TESTAMENT_ALREADY_EXISTS",
      "type": "error"
    },
    {
      "inputs": [],
      "name": "T_UNAUTHORIZED",
      "type": "error"
    },
    {
      "anonymous": false,
      "inputs": [
        {
          "indexed": false,
          "internalType": "address",
          "name": "owner",
          "type": "address"
        },
        {
          "indexed": false,
          "internalType": "address",
          "name": "backupAddress",
          "type": "address"
        }
      ],
      "name": "BackupAdded",
      "type": "event"
    },
    {
      "anonymous": false,
      "inputs": [
        {
          "indexed": false,
          "internalType": "address",
          "name": "owner",
          "type": "address"
        },
        {
          "components": [
            {
              "internalType": "string",
              "name": "name",
              "type": "string"
            },
            {
              "internalType": "address payable",
              "name": "address_",
              "type": "address"
            },
            {
              "internalType": "uint128",
              "name": "inheritancePercentage",
              "type": "uint128"
            }
          ],
          "indexed": false,
          "internalType": "struct Types.Beneficiary[]",
          "name": "beneficiaries",
          "type": "tuple[]"
        }
      ],
      "name": "BeneficiariesUpdated",
      "type": "event"
    },
    {
      "anonymous": false,
      "inputs": [
        {
          "indexed": false,
          "internalType": "address",
          "name": "owner",
          "type": "address"
        },
        {
          "indexed": false,
          "internalType": "address",
          "name": "beneficiary",
          "type": "address"
        }
      ],
      "name": "BeneficiaryAdded",
      "type": "event"
    },
    {
      "anonymous": false,
      "inputs": [
        {
          "indexed": false,
          "internalType": "address",
          "name": "owner",
          "type": "address"
        },
        {
          "indexed": false,
          "internalType": "address",
          "name": "beneficiaryAddress",
          "type": "address"
        },
        {
          "indexed": false,
          "internalType": "uint128",
          "name": "newInheritancePercentage",
          "type": "uint128"
        }
      ],
      "name": "BeneficiaryPercentageUpdated",
      "type": "event"
    },
    {
      "anonymous": false,
      "inputs": [
        {
          "indexed": false,
          "internalType": "address",
          "name": "owner",
          "type": "address"
        },
        {
          "indexed": false,
          "internalType": "address",
          "name": "beneficiary",
          "type": "address"
        }
      ],
      "name": "BeneficiaryRemoved",
      "type": "event"
    },
    {
      "anonymous": false,
      "inputs": [
        {
          "indexed": false,
          "internalType": "uint128",
          "name": "newEstablishmentFeeRate",
          "type": "uint128"
        }
      ],
      "name": "EstablishmentFeeRateUpdated",
      "type": "event"
    },
    {
      "anonymous": false,
      "inputs": [
        {
          "indexed": false,
          "internalType": "uint8",
          "name": "version",
          "type": "uint8"
        }
      ],
      "name": "Initialized",
      "type": "event"
    },
    {
      "anonymous": false,
      "inputs": [
        {
          "indexed": true,
          "internalType": "address",
          "name": "previousOwner",
          "type": "address"
        },
        {
          "indexed": true,
          "internalType": "address",
          "name": "newOwner",
          "type": "address"
        }
      ],
      "name": "OwnershipTransferred",
      "type": "event"
    },
    {
      "anonymous": false,
      "inputs": [
        {
          "indexed": false,
          "internalType": "address",
          "name": "account",
          "type": "address"
        }
      ],
      "name": "Paused",
      "type": "event"
    },
    {
      "anonymous": false,
      "inputs": [
        {
          "indexed": false,
          "internalType": "address",
          "name": "owner",
          "type": "address"
        },
        {
          "indexed": false,
          "internalType": "uint128",
          "name": "timestamp",
          "type": "uint128"
        }
      ],
      "name": "ProofOfLifeUpdated",
      "type": "event"
    },
    {
      "anonymous": false,
      "inputs": [
        {
          "indexed": false,
          "internalType": "address",
          "name": "owner",
          "type": "address"
        }
      ],
      "name": "TestamentCanceled",
      "type": "event"
    },
    {
      "anonymous": false,
      "inputs": [
        {
          "indexed": false,
          "internalType": "address",
          "name": "owner",
          "type": "address"
        }
      ],
      "name": "TestamentSucceeded",
      "type": "event"
    },
    {
      "anonymous": false,
      "inputs": [
        {
          "indexed": false,
          "internalType": "address",
          "name": "owner",
          "type": "address"
        },
        {
          "indexed": false,
          "internalType": "address",
          "name": "token",
          "type": "address"
        }
      ],
      "name": "TokenAdded",
      "type": "event"
    },
    {
      "anonymous": false,
      "inputs": [
        {
          "indexed": false,
          "internalType": "address",
          "name": "account",
          "type": "address"
        }
      ],
      "name": "Unpaused",
      "type": "event"
    },
    {
      "anonymous": false,
      "inputs": [
        {
          "indexed": false,
          "internalType": "address",
          "name": "owner",
          "type": "address"
        },
        {
          "indexed": false,
          "internalType": "address",
          "name": "backupAddress",
          "type": "address"
        }
      ],
      "name": "accountRepossessed",
      "type": "event"
    },
    {
      "inputs": [
        {
          "internalType": "address",
          "name": "backupAddress",
          "type": "address"
        }
      ],
      "name": "addBackup",
      "outputs": [],
      "stateMutability": "nonpayable",
      "type": "function"
    },
    {
      "inputs": [
        {
          "components": [
            {
              "internalType": "string",
              "name": "name",
              "type": "string"
            },
            {
              "internalType": "address payable",
              "name": "address_",
              "type": "address"
            },
            {
              "internalType": "uint128",
              "name": "inheritancePercentage",
              "type": "uint128"
            }
          ],
          "internalType": "struct Types.Beneficiary",
          "name": "beneficiary",
          "type": "tuple"
        }
      ],
      "name": "addBeneficiary",
      "outputs": [],
      "stateMutability": "nonpayable",
      "type": "function"
    },
    {
      "inputs": [
        {
          "internalType": "address",
          "name": "token",
          "type": "address"
        }
      ],
      "name": "addToken",
      "outputs": [],
      "stateMutability": "nonpayable",
      "type": "function"
    },
    {
      "inputs": [],
      "name": "cancelTestament",
      "outputs": [],
      "stateMutability": "nonpayable",
      "type": "function"
    },
    {
      "inputs": [
        {
          "internalType": "uint128",
          "name": "inactivityMaximum",
          "type": "uint128"
        },
        {
          "components": [
            {
              "internalType": "string",
              "name": "name",
              "type": "string"
            },
            {
              "internalType": "address payable",
              "name": "address_",
              "type": "address"
            },
            {
              "internalType": "uint128",
              "name": "inheritancePercentage",
              "type": "uint128"
            }
          ],
          "internalType": "struct Types.Beneficiary[]",
          "name": "beneficiaries",
          "type": "tuple[]"
        }
      ],
      "name": "createTestament",
      "outputs": [],
      "stateMutability": "nonpayable",
      "type": "function"
    },
    {
      "inputs": [
        {
          "internalType": "address",
          "name": "",
          "type": "address"
        }
      ],
      "name": "dynamicVaults",
      "outputs": [
        {
          "components": [
            {
              "internalType": "uint128",
              "name": "inactivityMaximum",
              "type": "uint128"
            },
            {
              "internalType": "uint128",
              "name": "proofOfLife",
              "type": "uint128"
            },
            {
              "internalType": "bool",
              "name": "succeeded",
              "type": "bool"
            },
            {
              "components": [
                {
                  "internalType": "string",
                  "name": "name",
                  "type": "string"
                },
                {
                  "internalType": "address payable",
                  "name": "address_",
                  "type": "address"
                },
                {
                  "internalType": "uint128",
                  "name": "inheritancePercentage",
                  "type": "uint128"
                }
              ],
              "internalType": "struct Types.Beneficiary[]",
              "name": "beneficiaries",
              "type": "tuple[]"
            },
            {
              "internalType": "address[]",
              "name": "tokens",
              "type": "address[]"
            },
            {
              "internalType": "enum Types.TestamentStatus",
              "name": "status",
              "type": "uint8"
            }
          ],
          "internalType": "struct Types.Testament",
          "name": "testament",
          "type": "tuple"
        },
        {
          "internalType": "uint128",
          "name": "ESTABLISHMENT_FEE_RATE",
          "type": "uint128"
        }
      ],
      "stateMutability": "view",
      "type": "function"
    },
    {
      "inputs": [
        {
          "internalType": "address",
          "name": "owner",
          "type": "address"
        }
      ],
      "name": "getBackupAddresses",
      "outputs": [
        {
          "internalType": "address[]",
          "name": "",
          "type": "address[]"
        }
      ],
      "stateMutability": "view",
      "type": "function"
    },
    {
      "inputs": [
        {
          "internalType": "address",
          "name": "owner",
          "type": "address"
        }
      ],
      "name": "getTestamentParameters",
      "outputs": [
        {
          "internalType": "address[]",
          "name": "tokens",
          "type": "address[]"
        },
        {
          "internalType": "uint128",
          "name": "inactivityMaximum",
          "type": "uint128"
        },
        {
          "internalType": "uint128",
          "name": "proofOfLife",
          "type": "uint128"
        },
        {
          "internalType": "bool",
          "name": "succeeded",
          "type": "bool"
        },
        {
          "internalType": "string[]",
          "name": "beneficiariesNames",
          "type": "string[]"
        },
        {
          "internalType": "address[]",
          "name": "beneficiariesAddresses",
          "type": "address[]"
        },
        {
          "internalType": "uint256[]",
          "name": "beneficiariesInheritancePercentages",
          "type": "uint256[]"
        }
      ],
      "stateMutability": "view",
      "type": "function"
    },
    {
      "inputs": [
        {
          "internalType": "uint128",
          "name": "establishmentFeeRate_",
          "type": "uint128"
        }
      ],
      "name": "initialize",
      "outputs": [],
      "stateMutability": "nonpayable",
      "type": "function"
    },
    {
      "inputs": [],
      "name": "owner",
      "outputs": [
        {
          "internalType": "address",
          "name": "",
          "type": "address"
        }
      ],
      "stateMutability": "view",
      "type": "function"
    },
    {
      "inputs": [],
      "name": "pause",
      "outputs": [],
      "stateMutability": "nonpayable",
      "type": "function"
    },
    {
      "inputs": [],
      "name": "paused",
      "outputs": [
        {
          "internalType": "bool",
          "name": "",
          "type": "bool"
        }
      ],
      "stateMutability": "view",
      "type": "function"
    },
    {
      "inputs": [
        {
          "internalType": "address",
          "name": "backupAddress",
          "type": "address"
        }
      ],
      "name": "removeBackup",
      "outputs": [],
      "stateMutability": "nonpayable",
      "type": "function"
    },
    {
      "inputs": [
        {
          "internalType": "address",
          "name": "address_",
          "type": "address"
        }
      ],
      "name": "removeBeneficiary",
      "outputs": [],
      "stateMutability": "nonpayable",
      "type": "function"
    },
    {
      "inputs": [],
      "name": "renounceOwnership",
      "outputs": [],
      "stateMutability": "nonpayable",
      "type": "function"
    },
    {
      "inputs": [
        {
          "internalType": "address",
          "name": "owner",
          "type": "address"
        }
      ],
      "name": "repossessAccount",
      "outputs": [],
      "stateMutability": "nonpayable",
      "type": "function"
    },
    {
      "inputs": [],
      "name": "signalLife",
      "outputs": [],
      "stateMutability": "nonpayable",
      "type": "function"
    },
    {
      "inputs": [
        {
          "internalType": "address",
          "name": "owner",
          "type": "address"
        }
      ],
      "name": "succeed",
      "outputs": [],
      "stateMutability": "nonpayable",
      "type": "function"
    },
    {
      "inputs": [
        {
          "internalType": "address",
          "name": "newOwner",
          "type": "address"
        }
      ],
      "name": "transferOwnership",
      "outputs": [],
      "stateMutability": "nonpayable",
      "type": "function"
    },
    {
      "inputs": [],
      "name": "unpause",
      "outputs": [],
      "stateMutability": "nonpayable",
      "type": "function"
    },
    {
      "inputs": [
        {
          "internalType": "string[]",
          "name": "names",
          "type": "string[]"
        },
        {
          "internalType": "address[]",
          "name": "addresses",
          "type": "address[]"
        },
        {
          "internalType": "uint128[]",
          "name": "newInheritancePercentages",
          "type": "uint128[]"
        },
        {
          "internalType": "uint128[]",
          "name": "indexes",
          "type": "uint128[]"
        }
      ],
      "name": "updateBeneficiaries",
      "outputs": [],
      "stateMutability": "nonpayable",
      "type": "function"
    },
    {
      "inputs": [
        {
          "internalType": "uint128",
          "name": "newEstablishmentFeeRate",
          "type": "uint128"
        }
      ],
      "name": "updateEstablishmentFeeRate",
      "outputs": [],
      "stateMutability": "nonpayable",
      "type": "function"
    },
    {
      "inputs": [
        {
          "internalType": "uint128",
          "name": "newInactivityMaximum",
          "type": "uint128"
        }
      ],
      "name": "updateInactivityMaximum",
      "outputs": [],
      "stateMutability": "nonpayable",
      "type": "function"
    }
  ],
  "transactionHash": "0x53c779dd2703dd2ab06e17451f8a95af1da3f72ec39bba700339dd62bfd12890",
  "args": [],
  "numDeployments": 1,
  "solcInputHash": "308b5b936d0823721ffe6020d2baff01",
  "bytecode": "0x608060405234801561001057600080fd5b506131b3806100206000396000f3fe608060405234801561001057600080fd5b506004361061014d5760003560e01c80638456cb59116100c3578063b22eb14a1161007c578063b22eb14a146102be578063c79440b8146102d1578063d48bfca7146102f2578063e6ac3cae14610305578063ee032f7614610318578063f2fde38b1461032b57600080fd5b80638456cb591461025a5780638da5cb5b1461026257806390c2cfd31461027d5780639b0d521e146102905780639f69093f14610298578063b0a985e7146102ab57600080fd5b80634ac5c559116101155780634ac5c559146101e357806356db9ef11461020357806359633a1c146102165780635b5af79a146102295780635c975abb1461023c578063715018a61461025257600080fd5b80630b70b812146101525780630f34f64d146101675780631aba6da6146101a45780633f4ba83a146101ac578063451e214b146101b4575b600080fd5b61016561016036600461262e565b61033e565b005b61016561017536600461266e565b33600090815260986020526040902080546001600160801b0319166001600160801b0392909216919091179055565b61016561088b565b6101656108e0565b6101c76101c236600461262e565b6108f2565b6040516101da9796959493929190612755565b60405180910390f35b6101f66101f136600461262e565b610c4d565b6040516101da9190612813565b61016561021136600461266e565b610cc9565b61016561022436600461262e565b610e04565b61016561023736600461294d565b610fd1565b60655460ff1660405190151581526020016101da565b610165611337565b610165611349565b6033546040516001600160a01b0390911681526020016101da565b61016561028b366004612b09565b611359565b610165611507565b6101656102a636600461262e565b61156a565b6101656102b936600461266e565b61168c565b6101656102cc36600461262e565b6116e2565b6102e46102df36600461262e565b6118bf565b6040516101da929190612c05565b61016561030036600461262e565b611ac7565b61016561031336600461262e565b611b3b565b610165610326366004612d19565b611c7a565b61016561033936600461262e565b611deb565b6001600160a01b038116600090815260986020526040812090805b60028301548110156103bc576002830180543391908390811061037e5761037e612d4e565b60009182526020909120600160039092020101546001600160a01b031614156103aa57600191506103bc565b806103b481612d7a565b915050610359565b50806103db5760405163247edc9760e21b815260040160405180910390fd5b6001600160a01b03831660009081526098602052604090208054610412906001600160801b0380821691600160801b900416612d95565b6001600160801b031642101561043b5760405163188ef90f60e01b815260040160405180910390fd5b6001600160a01b0384166000908152609860205260409020600181015460ff161561047957604051637d170f0760e11b815260040160405180910390fd5b6001600160a01b03851660009081526098602052604090206001600482015460ff1660018111156104ac576104ac612bcd565b146104ca576040516308b0d32b60e21b815260040160405180910390fd5b6001600160a01b03861660009081526098602052604081206001808201805460ff19169091179055905b600382015481101561084557600082600001600301828154811061051a5761051a612d4e565b6000918252602082200154604051636eb1769f60e11b81526001600160a01b038c811660048301523060248301529091169250829063dd62ed3e9060440160206040518083038186803b15801561057057600080fd5b505afa158015610584573d6000803e3d6000fd5b505050506040513d601f19601f820116820180604052508101906105a89190612dc0565b6040516370a0823160e01b81526001600160a01b038c811660048301529192506001600160801b038316918416906370a082319060240160206040518083038186803b1580156105f757600080fd5b505afa15801561060b573d6000803e3d6000fd5b505050506040513d601f19601f8201168201806040525081019061062f9190612dc0565b10156106b1576040516370a0823160e01b81526001600160a01b038b811660048301528316906370a082319060240160206040518083038186803b15801561067657600080fd5b505afa15801561068a573d6000803e3d6000fd5b505050506040513d601f19601f820116820180604052508101906106ae9190612dc0565b90505b6000826001600160a01b031663313ce5676040518163ffffffff1660e01b815260040160206040518083038186803b1580156106ec57600080fd5b505afa158015610700573d6000803e3d6000fd5b505050506040513d601f19601f820116820180604052508101906107249190612dd9565b9050600061073e6001600160801b03841660ff8416611e64565b905060005b600287015481101561082d5760006107ae68056bc75e2d6310000061079f8a600001600201858154811061077957610779612d4e565b60009182526020909120600260039092020101546001600160801b038781169116611e9f565b6001600160801b031690611eb7565b905061081a8e8960000160020184815481106107cc576107cc612d4e565b60009182526020909120600160039092020101546001600160a01b03166107ff6001600160801b03851660ff8916611ecf565b6001600160a01b038a169291906001600160801b0316611ef8565b508061082581612d7a565b915050610743565b5050505050808061083d90612d7a565b9150506104f4565b506040516001600160a01b03881681527f357a23da712a8394b0f6db8584a5cda1594a487a94c8ddfd245d49db8572ad5d9060200160405180910390a150505050505050565b3360008181526098602090815260409182902060048101805460ff19169055915192835290917f7a059e9acdd028cf0fa7805ac1bcb2fcd73cd7827da1021f1b74875f062d9a6891015b60405180910390a150565b6108e8611f52565b6108f0611fac565b565b6001600160a01b03811660009081526098602052604081206002810154606092918291829185918291829167ffffffffffffffff81111561093557610935612826565b60405190808252806020026020018201604052801561096857816020015b60608152602001906001900390816109535790505b50600282015490945067ffffffffffffffff81111561098957610989612826565b6040519080825280602002602001820160405280156109b2578160200160208202803683370190505b50600282015490935067ffffffffffffffff8111156109d3576109d3612826565b6040519080825280602002602001820160405280156109fc578160200160208202803683370190505b50915060005b6002820154811015610ba95760028201805482908110610a2457610a24612d4e565b90600052602060002090600302016000018054610a4090612dfc565b80601f0160208091040260200160405190810160405280929190818152602001828054610a6c90612dfc565b8015610ab95780601f10610a8e57610100808354040283529160200191610ab9565b820191906000526020600020905b815481529060010190602001808311610a9c57829003601f168201915b5050505050858281518110610ad057610ad0612d4e565b6020026020010181905250816000016002018181548110610af357610af3612d4e565b906000526020600020906003020160010160009054906101000a90046001600160a01b0316848281518110610b2a57610b2a612d4e565b6001600160a01b039092166020928302919091019091015260028201805482908110610b5857610b58612d4e565b600091825260209091206002600390920201015483516001600160801b0390911690849083908110610b8c57610b8c612d4e565b602090810291909101015280610ba181612d7a565b915050610a02565b50805460018201546003830180546040805160208084028201810190925282815292946001600160801b0380821695600160801b909204169360ff909116928a928a928a929091899190830182828015610c2c57602002820191906000526020600020905b81546001600160a01b03168152600190910190602001808311610c0e575b50505050509650975097509750975097509750975050919395979092949650565b6001600160a01b0381166000908152609860209081526040918290206005810180548451818502810185019095528085526060949293830182828015610cbc57602002820191906000526020600020905b81546001600160a01b03168152600190910190602001808311610c9e575b5050505050915050919050565b600054610100900460ff1615808015610ce95750600054600160ff909116105b80610d035750303b158015610d03575060005460ff166001145b610d6b5760405162461bcd60e51b815260206004820152602e60248201527f496e697469616c697a61626c653a20636f6e747261637420697320616c72656160448201526d191e481a5b9a5d1a585b1a5e995960921b60648201526084015b60405180910390fd5b6000805460ff191660011790558015610d8e576000805461ff0019166101001790555b609780546001600160801b0319166001600160801b038416179055610db1611ffe565b610db961202d565b8015610e00576000805461ff0019169055604051600181527f7f26b83ff96e1f2b6a682f133852f6798a09c465da95921460cefb3847402498906020015b60405180910390a15b5050565b336000908152609860205260408120905b6002820154811015610f9257826001600160a01b0316826000016002018281548110610e4357610e43612d4e565b60009182526020909120600160039092020101546001600160a01b03161415610f8057600282018054610e7890600190612e37565b81548110610e8857610e88612d4e565b9060005260206000209060030201826000016002018281548110610eae57610eae612d4e565b90600052602060002090600302016000820181600001908054610ed090612dfc565b610edb9291906124cb565b5060018281015490820180546001600160a01b0319166001600160a01b0390921691909117905560029182015490820180546001600160801b0319166001600160801b039092169190911790558201805480610f3957610f39612e4e565b60008281526020812060001990920191600383020190610f598282612556565b506001810180546001600160a01b031916905560020180546001600160801b031916905590555b80610f8a81612d7a565b915050610e15565b50604080513381526001600160a01b03841660208201527f1a6590bd0cabbfcc7c86bef99e1034054e179905cfcc294598fcd426c09224429101610df7565b336000908152609860205260408120905b868110156112ef576000888883818110610ffe57610ffe612d4e565b9050602002016020810190611013919061262e565b6001600160a01b0316141561103b57604051637455f0d160e01b815260040160405180910390fd5b83838281811061104d5761104d612d4e565b9050602002016020810190611062919061266e565b60028301546001600160801b03919091169061108090600190612e37565b10156111a1578160000160020160405180606001604052808b84815181106110aa576110aa612d4e565b602002602001015181526020018a8a858181106110c9576110c9612d4e565b90506020020160208101906110de919061262e565b6001600160a01b031681526020018888858181106110fe576110fe612d4e565b9050602002016020810190611113919061266e565b6001600160801b031690528154600181018355600092835260209283902082518051939460039093029091019261114d9284920190612590565b5060208201516001820180546001600160a01b0319166001600160a01b03909216919091179055604090910151600290910180546001600160801b0319166001600160801b039092169190911790556112dd565b8881815181106111b3576111b3612d4e565b60200260200101518260000160020182815481106111d3576111d3612d4e565b906000526020600020906003020160000190805190602001906111f7929190612590565b5087878281811061120a5761120a612d4e565b905060200201602081019061121f919061262e565b6002830180548390811061123557611235612d4e565b906000526020600020906003020160010160006101000a8154816001600160a01b0302191690836001600160a01b0316021790555085858281811061127c5761127c612d4e565b9050602002016020810190611291919061266e565b600283018054839081106112a7576112a7612d4e565b906000526020600020906003020160020160006101000a8154816001600160801b0302191690836001600160801b031602179055505b806112e781612d7a565b915050610fe2565b506040517f2dde50966c420fb793a66cd5b346db8f50c864b66bc66e1e724e8e32598d8d7f906113259033906002850190612e64565b60405180910390a15050505050505050565b61133f611f52565b6108f06000612060565b611351611f52565b6108f06120b2565b60013360009081526098602052604090206004015460ff16600181111561138257611382612bcd565b14156113a157604051633fa53c6960e21b815260040160405180910390fd5b33600090815260986020526040812060048101805460ff191660011790556001600160801b03848116600160801b42831602178255609754600683018054919092166001600160801b0319909116179055905b82518110156115015760006001600160a01b031683828151811061141a5761141a612d4e565b6020026020010151602001516001600160a01b0316141561144e57604051637455f0d160e01b815260040160405180910390fd5b8160000160020183828151811061146757611467612d4e565b6020908102919091018101518254600181018455600093845292829020815180519294600302909101926114a092849290910190612590565b5060208201516001820180546001600160a01b0319166001600160a01b03909216919091179055604090910151600290910180546001600160801b0319166001600160801b03909216919091179055806114f981612d7a565b9150506113f4565b50505050565b336000818152609860209081526040918290208054426001600160801b03818116600160801b8102919093161783558451958652928501529290917f55c9c5ee646e1aa94638dad0d79fc724747507090d67ec0eb580a299efa4e4699101610df7565b336000908152609860205260408120905b600582015481101561168757826001600160a01b03168260050182815481106115a6576115a6612d4e565b6000918252602090912001546001600160a01b03161415611675576005820180546115d390600190612e37565b815481106115e3576115e3612d4e565b6000918252602090912001546005830180546001600160a01b03909216918390811061161157611611612d4e565b9060005260206000200160006101000a8154816001600160a01b0302191690836001600160a01b031602179055508160050180548061165257611652612e4e565b600082815260209020810160001990810180546001600160a01b03191690550190555b8061167f81612d7a565b91505061157b565b505050565b611694611f52565b609780546001600160801b0319166001600160801b0383169081179091556040519081527f65b9616ef6956f93e9f5ff8c16600ea68f350f5a7837ba453db2e09ced449e63906020016108d5565b6001600160a01b038116600090815260986020526040812090805b600583015481101561175e57336001600160a01b031683600501828154811061172857611728612d4e565b6000918252602090912001546001600160a01b0316141561174c576001915061175e565b8061175681612d7a565b9150506116fd565b508061177d5760405163247edc9760e21b815260040160405180910390fd5b6001600160a01b0383166000908152609860205260408120905b60038201548110156118775760008260000160030182815481106117bd576117bd612d4e565b6000918252602082200154604051636eb1769f60e11b81526001600160a01b0389811660048301523060248301529091169250829063dd62ed3e9060440160206040518083038186803b15801561181357600080fd5b505afa158015611827573d6000803e3d6000fd5b505050506040513d601f19601f8201168201806040525081019061184b9190612dc0565b90506118626001600160a01b038316883384611ef8565b5050808061186f90612d7a565b915050611797565b50604080516001600160a01b03861681523360208201527fc4af7c6b5a6348a0bc6868dcf4514413ca1fb528f1c2f9d69c333b32a9983b83910160405180910390a150505050565b6098602090815260009182526040808320815160c08101835281546001600160801b038082168352600160801b9091041681850152600182015460ff1615158184015260028201805484518187028101870190955280855292959194869460608701949093909184015b82821015611a19578382906000526020600020906003020160405180606001604052908160008201805461195c90612dfc565b80601f016020809104026020016040519081016040528092919081815260200182805461198890612dfc565b80156119d55780601f106119aa576101008083540402835291602001916119d5565b820191906000526020600020905b8154815290600101906020018083116119b857829003601f168201915b50505091835250506001828101546001600160a01b03166020808401919091526002909301546001600160801b031660409092019190915291835292019101611929565b50505050815260200160038201805480602002602001604051908101604052809291908181526020018280548015611a7a57602002820191906000526020600020905b81546001600160a01b03168152600190910190602001808311611a5c575b5050509183525050600482015460209091019060ff166001811115611aa157611aa1612bcd565b6001811115611ab257611ab2612bcd565b9052506006909101546001600160801b031682565b33600081815260986020908152604080832060030180546001810182559084529282902090920180546001600160a01b0319166001600160a01b0386169081179091558251938452908301527fdffbd9ded1c09446f09377de547142dcce7dc541c8b0b028142b1eba7026b9e791016108d5565b3360009081526098602052604090206001600160a01b038216611b7157604051637455f0d160e01b815260040160405180910390fd5b6001600160a01b038216331415611b9b57604051637e5c446160e01b815260040160405180910390fd5b60005b6005820154811015611c0f57826001600160a01b0316826005018281548110611bc957611bc9612d4e565b6000918252602090912001546001600160a01b03161415611bfd576040516337a0856f60e01b815260040160405180910390fd5b80611c0781612d7a565b915050611b9e565b5060058101805460018101825560009182526020918290200180546001600160a01b0319166001600160a01b03851690811790915560408051338152928301919091527faa63604f4f0678e8d82821d14382ce002287732869d0be7800c364d6ef3d0c4d9101610df7565b3360009081526098602052604080822090830151909190611ca4906001600160801b031682612f98565b905060005b6002830154811015611d065760028301805482908110611ccb57611ccb612d4e565b6000918252602090912060026003909202010154611cf2906001600160801b031683612f98565b915080611cfe81612d7a565b915050611ca9565b506064811115611d29576040516380959c2b60e01b815260040160405180910390fd5b6002820180546001810182556000918252602091829020855180518794600390940290920192611d5e92849290910190612590565b506020828101516001830180546001600160a01b0319166001600160a01b03928316179055604093840151600290930180546001600160801b0319166001600160801b03909416939093179092558581015183513381529216908201527fbb39c36a7502b7256e1a687254146a9a2ea7b146c77cb9e40eb0e2b8793781e1910160405180910390a1505050565b611df3611f52565b6001600160a01b038116611e585760405162461bcd60e51b815260206004820152602660248201527f4f776e61626c653a206e6577206f776e657220697320746865207a65726f206160448201526564647265737360d01b6064820152608401610d62565b611e6181612060565b50565b6000611e7182600a613094565b611e8c670de0b6b3a76400006001600160801b0386166130a0565b611e9691906130bf565b90505b92915050565b6000611e966001600160801b038481169084166120ef565b6000611e966001600160801b0384811690841661217a565b6000670de0b6b3a7640000611ee583600a613094565b611e8c906001600160801b0386166130a0565b604080516001600160a01b0385811660248301528416604482015260648082018490528251808303909101815260849091019091526020810180516001600160e01b03166323b872dd60e01b179052611501908590612217565b6033546001600160a01b031633146108f05760405162461bcd60e51b815260206004820181905260248201527f4f776e61626c653a2063616c6c6572206973206e6f7420746865206f776e65726044820152606401610d62565b611fb46122ec565b6065805460ff191690557f5db9ee0a495bf2e6ff9c91a7834c1ba4fdd244a5e8aa4e537bd38aeae4b073aa335b6040516001600160a01b03909116815260200160405180910390a1565b600054610100900460ff166120255760405162461bcd60e51b8152600401610d62906130e1565b6108f0612335565b600054610100900460ff166120545760405162461bcd60e51b8152600401610d62906130e1565b6065805460ff19169055565b603380546001600160a01b038381166001600160a01b0319831681179093556040519116919082907f8be0079c531659141344cd1fd0a4f28419497f9722a3daafe3b4186f6b6457e090600090a35050565b6120ba612365565b6065805460ff191660011790557f62e78cea01bee320cd4e420270b5ea74000d11b0c9f74754ebdbfc544b05a258611fe13390565b60008215806120fc575081155b1561210957506000611e99565b8161211d6002670de0b6b3a76400006130bf565b61212990600019612e37565b61213391906130bf565b8311156121525760405162a748d160e21b815260040160405180910390fd5b670de0b6b3a76400006121666002826130bf565b61217084866130a0565b611e8c9190612f98565b60008161219a576040516308693c7b60e31b815260040160405180910390fd5b60006121a76002846130bf565b9050670de0b6b3a76400006121be82600019612e37565b6121c891906130bf565b8411156121e75760405162a748d160e21b815260040160405180910390fd5b82816121fb670de0b6b3a7640000876130a0565b6122059190612f98565b61220f91906130bf565b949350505050565b600061226c826040518060400160405280602081526020017f5361666545524332303a206c6f772d6c6576656c2063616c6c206661696c6564815250856001600160a01b03166123ab9092919063ffffffff16565b905080516000148061228d57508080602001905181019061228d919061312c565b6116875760405162461bcd60e51b815260206004820152602a60248201527f5361666545524332303a204552433230206f7065726174696f6e20646964206e6044820152691bdd081cdd58d8d9595960b21b6064820152608401610d62565b60655460ff166108f05760405162461bcd60e51b815260206004820152601460248201527314185d5cd8589b194e881b9bdd081c185d5cd95960621b6044820152606401610d62565b600054610100900460ff1661235c5760405162461bcd60e51b8152600401610d62906130e1565b6108f033612060565b60655460ff16156108f05760405162461bcd60e51b815260206004820152601060248201526f14185d5cd8589b194e881c185d5cd95960821b6044820152606401610d62565b606061220f848460008585600080866001600160a01b031685876040516123d2919061314e565b60006040518083038185875af1925050503d806000811461240f576040519150601f19603f3d011682016040523d82523d6000602084013e612414565b606091505b509150915061242587838387612430565b979650505050505050565b6060831561249c578251612495576001600160a01b0385163b6124955760405162461bcd60e51b815260206004820152601d60248201527f416464726573733a2063616c6c20746f206e6f6e2d636f6e74726163740000006044820152606401610d62565b508161220f565b61220f83838151156124b15781518083602001fd5b8060405162461bcd60e51b8152600401610d62919061316a565b8280546124d790612dfc565b90600052602060002090601f0160209004810192826124f95760008555612546565b82601f1061250a5780548555612546565b8280016001018555821561254657600052602060002091601f016020900482015b8281111561254657825482559160010191906001019061252b565b50612552929150612604565b5090565b50805461256290612dfc565b6000825580601f10612572575050565b601f016020900490600052602060002090810190611e619190612604565b82805461259c90612dfc565b90600052602060002090601f0160209004810192826125be5760008555612546565b82601f106125d757805160ff1916838001178555612546565b82800160010185558215612546579182015b828111156125465782518255916020019190600101906125e9565b5b808211156125525760008155600101612605565b6001600160a01b0381168114611e6157600080fd5b60006020828403121561264057600080fd5b813561264b81612619565b9392505050565b80356001600160801b038116811461266957600080fd5b919050565b60006020828403121561268057600080fd5b611e9682612652565b600081518084526020808501945080840160005b838110156126c25781516001600160a01b03168752958201959082019060010161269d565b509495945050505050565b60005b838110156126e85781810151838201526020016126d0565b838111156115015750506000910152565b600081518084526127118160208601602086016126cd565b601f01601f19169290920160200192915050565b600081518084526020808501945080840160005b838110156126c257815187529582019590820190600101612739565b60e08152600061276860e083018a612689565b60206001600160801b03808b1682860152808a16604086015250871515606085015283820360808501528187518084528284019150828160051b850101838a0160005b838110156127d957601f198784030185526127c78383516126f9565b948601949250908501906001016127ab565b505086810360a08801526127ed818a612689565b94505050505082810360c08401526128058185612725565b9a9950505050505050505050565b602081526000611e966020830184612689565b634e487b7160e01b600052604160045260246000fd5b604051601f8201601f1916810167ffffffffffffffff8111828210171561286557612865612826565b604052919050565b600067ffffffffffffffff82111561288757612887612826565b5060051b60200190565b600082601f8301126128a257600080fd5b813567ffffffffffffffff8111156128bc576128bc612826565b6128cf601f8201601f191660200161283c565b8181528460208386010111156128e457600080fd5b816020850160208301376000918101602001919091529392505050565b60008083601f84011261291357600080fd5b50813567ffffffffffffffff81111561292b57600080fd5b6020830191508360208260051b850101111561294657600080fd5b9250929050565b60008060008060008060006080888a03121561296857600080fd5b67ffffffffffffffff808935111561297f57600080fd5b883589018a601f82011261299257600080fd5b80356129a56129a08261286d565b61283c565b8082825260208201915060208360051b85010192508d8311156129c757600080fd5b602084015b83811015612a005785813511156129e257600080fd5b6129f28f60208335880101612891565b8352602092830192016129cc565b509a50505050602089013581811115612a1857600080fd5b612a248b828c01612901565b909850965050604089013581811115612a3c57600080fd5b612a488b828c01612901565b909650945050606089013581811115612a6057600080fd5b612a6c8b828c01612901565b999c989b5096995094979396939450505050565b600060608284031215612a9257600080fd5b6040516060810167ffffffffffffffff8282108183111715612ab657612ab6612826565b816040528293508435915080821115612ace57600080fd5b50612adb85828601612891565b8252506020830135612aec81612619565b6020820152612afd60408401612652565b60408201525092915050565b60008060408385031215612b1c57600080fd5b612b2583612652565b915060208084013567ffffffffffffffff80821115612b4357600080fd5b818601915086601f830112612b5757600080fd5b8135612b656129a08261286d565b81815260059190911b83018401908481019089831115612b8457600080fd5b8585015b83811015612bbc57803585811115612ba05760008081fd5b612bae8c89838a0101612a80565b845250918601918601612b88565b508096505050505050509250929050565b634e487b7160e01b600052602160045260246000fd5b60028110612c0157634e487b7160e01b600052602160045260246000fd5b9052565b6000604080835261010083016001600160801b038087511683860152602080880151606083821681890152858a015115156080890152808a0151915060c060a08901528482518087526101209650868a019150868160051b8b01019650848401935060005b81811015612cbf578a880361011f1901835284518051858a52612c8f868b01826126f9565b828901516001600160a01b03168b8a0152918b01518916998b019990995297509385019391850191600101612c6a565b505050505060808801519350603f198684030160c0870152612ce18385612689565b935060a08801519250612cf760e0870184612be3565b839450612d0e818701886001600160801b03169052565b505050509392505050565b600060208284031215612d2b57600080fd5b813567ffffffffffffffff811115612d4257600080fd5b61220f84828501612a80565b634e487b7160e01b600052603260045260246000fd5b634e487b7160e01b600052601160045260246000fd5b6000600019821415612d8e57612d8e612d64565b5060010190565b60006001600160801b03808316818516808303821115612db757612db7612d64565b01949350505050565b600060208284031215612dd257600080fd5b5051919050565b600060208284031215612deb57600080fd5b815160ff8116811461264b57600080fd5b600181811c90821680612e1057607f821691505b60208210811415612e3157634e487b7160e01b600052602260045260246000fd5b50919050565b600082821015612e4957612e49612d64565b500390565b634e487b7160e01b600052603160045260246000fd5b6000604080830160018060a01b038616845260208281860152818654808452606093508387019150838160051b8801016000898152848120815b84811015612f87578a8403605f1901865287845281548390600181811c9080831680612ecb57607f831692505b8b8310811415612ee957634e487b7160e01b88526022600452602488fd5b888d01838152602001818015612f065760018114612f1757612f41565b60ff19861682528d82019650612f41565b6000898152602090208a5b86811015612f3b57815484820152908501908f01612f22565b83019750505b5050508501546001600160a01b0316878b018190529150612f5f9050565b5060028301546001600160801b0316948a019490945294860194600390910190600101612e9e565b50919b9a5050505050505050505050565b60008219821115612fab57612fab612d64565b500190565b600181815b80851115612feb578160001904821115612fd157612fd1612d64565b80851615612fde57918102915b93841c9390800290612fb5565b509250929050565b60008261300257506001611e99565b8161300f57506000611e99565b8160018114613025576002811461302f5761304b565b6001915050611e99565b60ff84111561304057613040612d64565b50506001821b611e99565b5060208310610133831016604e8410600b841016171561306e575081810a611e99565b6130788383612fb0565b806000190482111561308c5761308c612d64565b029392505050565b6000611e968383612ff3565b60008160001904831182151516156130ba576130ba612d64565b500290565b6000826130dc57634e487b7160e01b600052601260045260246000fd5b500490565b6020808252602b908201527f496e697469616c697a61626c653a20636f6e7472616374206973206e6f74206960408201526a6e697469616c697a696e6760a81b606082015260800190565b60006020828403121561313e57600080fd5b8151801515811461264b57600080fd5b600082516131608184602087016126cd565b9190910192915050565b602081526000611e9660208301846126f956fea264697066735822122089f94854c37f20391752b08c91fa5fc773da885462ceded76ad4b9ebd925457664736f6c63430008080033",
  "devdoc": {
    "author": "Peace Foundation",
    "kind": "dev",
    "methods": {
      "addBackup(address)": {
        "params": {
          "backupAddress": "The address to add"
        }
      },
      "addBeneficiary((string,address,uint128))": {
        "details": "The addeed percentage of the beneficiaries should not exceed 100%The total maximum percentage should be 100%",
        "params": {
          "beneficiary": "The beneficiary to add"
        }
      },
      "addToken(address)": {
        "details": "there is no function to remove a token since that can be done by decreasing the allowance of this contract. Doing otherwise would be expensive and unnecessary",
        "params": {
          "token": "The token to be added to the protected tokens list"
        }
      },
      "createTestament(uint128,(string,address,uint128)[])": {
        "details": "The beneficiaries percentages should be with an 18 decimals precision to allow for percentages with decimalsThe beneficiaries percentages should add up to 100%",
        "params": {
          "beneficiaries": "The beneficiaries that will inherit the vault",
          "inactivityMaximum": "The maximum inactivity time"
        }
      },
      "getBackupAddresses(address)": {
        "params": {
          "owner": "The owner of the BoardWallet"
        },
        "returns": {
          "_0": "backupAddresses The backup addresses"
        }
      },
      "getTestamentParameters(address)": {
        "params": {
          "owner": "The owner of the BoardWallet"
        },
        "returns": {
          "inactivityMaximum": "The maximum inactivity time",
          "proofOfLife": "The last registred proof of life timestamp",
          "succeeded": "Whether the BoardWallet has been succeeded",
          "tokens": "The approved tokens"
        }
      },
      "owner()": {
        "details": "Returns the address of the current owner."
      },
      "paused()": {
        "details": "Returns true if the contract is paused, and false otherwise."
      },
      "removeBackup(address)": {
        "params": {
          "backupAddress": "The address to remove"
        }
      },
      "removeBeneficiary(address)": {
        "params": {
          "address_": "The beneficiary to remove"
        }
      },
      "renounceOwnership()": {
        "details": "Leaves the contract without owner. It will not be possible to call `onlyOwner` functions. Can only be called by the current owner. NOTE: Renouncing ownership will leave the contract without an owner, thereby disabling any functionality that is only available to the owner."
      },
      "repossessAccount(address)": {
        "params": {
          "owner": "The owner of the BoardWallet"
        }
      },
      "succeed(address)": {
        "details": "The function can only be called after the inactivity period is over",
        "params": {
          "owner": "The owner of the BoardWallet"
        }
      },
      "transferOwnership(address)": {
        "details": "Transfers ownership of the contract to a new account (`newOwner`). Can only be called by the current owner."
      },
      "updateBeneficiaries(string[],address[],uint128[],uint128[])": {
        "params": {
          "addresses": "The addresses of the beneficiary",
          "indexes": "The indexes to modify",
          "names": "The names of the beneficiaries",
          "newInheritancePercentages": "The new inheritance percentages"
        }
      },
      "updateInactivityMaximum(uint128)": {
        "params": {
          "newInactivityMaximum": "The new inactivity time"
        }
      }
    },
    "title": "BoardWallet",
    "version": 1
  },
  "userdoc": {
    "kind": "user",
    "methods": {
      "addBackup(address)": {
        "notice": "Adds backup address"
      },
      "addBeneficiary((string,address,uint128))": {
        "notice": "Adds beneficiary to thedynamicVault"
      },
      "addToken(address)": {
        "notice": "Adds a token to thedynamicVault "
      },
      "cancelTestament()": {
        "notice": "Cancels the testament"
      },
      "createTestament(uint128,(string,address,uint128)[])": {
        "notice": "Creates a BoardWallet"
      },
      "getBackupAddresses(address)": {
        "notice": "Returns the backup addresses of a given BoardWallet id"
      },
      "getTestamentParameters(address)": {
        "notice": "Returns the testament parameters of a given BoardWallet id"
      },
      "pause()": {
        "notice": "Stops all actions on all vaults"
      },
      "removeBackup(address)": {
        "notice": "Removes backup address"
      },
      "removeBeneficiary(address)": {
        "notice": "Removes beneficiary from the vault"
      },
      "repossessAccount(address)": {
        "notice": "Transfers the protected tokens to the backup address"
      },
      "signalLife()": {
        "notice": "Updates the proof of life timestamp"
      },
      "succeed(address)": {
        "notice": "Transfers the tokens to the beneficiaries"
      },
      "unpause()": {
        "notice": "Unpause vaults. Makes actions available again on all vaults*"
      },
      "updateBeneficiaries(string[],address[],uint128[],uint128[])": {
        "notice": "Updates the inheritance percentage of a beneficiary"
      },
      "updateEstablishmentFeeRate(uint128)": {
        "notice": "Sets the global establishment fee rate*"
      },
      "updateInactivityMaximum(uint128)": {
        "notice": "Updates the inactivity time of thedynamicVault "
      }
    },
    "notice": "Dyanmic vaults contract that allows for the transfer of tokens in case of emergency",
    "version": 1
  },
  "storageLayout": {
    "storage": [
      {
        "astId": 138,
        "contract": "contracts/BoardWallets.sol:BoardWallet",
        "label": "_initialized",
        "offset": 0,
        "slot": "0",
        "type": "t_uint8"
      },
      {
        "astId": 141,
        "contract": "contracts/BoardWallets.sol:BoardWallet",
        "label": "_initializing",
        "offset": 1,
        "slot": "0",
        "type": "t_bool"
      },
      {
        "astId": 798,
        "contract": "contracts/BoardWallets.sol:BoardWallet",
        "label": "__gap",
        "offset": 0,
        "slot": "1",
        "type": "t_array(t_uint256)50_storage"
      },
      {
        "astId": 10,
        "contract": "contracts/BoardWallets.sol:BoardWallet",
        "label": "_owner",
        "offset": 0,
        "slot": "51",
        "type": "t_address"
      },
      {
        "astId": 130,
        "contract": "contracts/BoardWallets.sol:BoardWallet",
        "label": "__gap",
        "offset": 0,
        "slot": "52",
        "type": "t_array(t_uint256)49_storage"
      },
      {
        "astId": 321,
        "contract": "contracts/BoardWallets.sol:BoardWallet",
        "label": "_paused",
        "offset": 0,
        "slot": "101",
        "type": "t_bool"
      },
      {
        "astId": 426,
        "contract": "contracts/BoardWallets.sol:BoardWallet",
        "label": "__gap",
        "offset": 0,
        "slot": "102",
        "type": "t_array(t_uint256)49_storage"
      },
      {
        "astId": 2284,
        "contract": "contracts/BoardWallets.sol:BoardWallet",
        "label": "establishmentFeeRate",
        "offset": 0,
        "slot": "151",
        "type": "t_uint128"
      },
      {
        "astId": 2289,
        "contract": "contracts/BoardWallets.sol:BoardWallet",
        "label": "dynamicVaults",
        "offset": 0,
        "slot": "152",
        "type": "t_mapping(t_address,t_struct(DynamicVault)3895_storage)"
      }
    ],
    "types": {
      "t_address": {
        "encoding": "inplace",
        "label": "address",
        "numberOfBytes": "20"
      },
      "t_address_payable": {
        "encoding": "inplace",
        "label": "address payable",
        "numberOfBytes": "20"
      },
      "t_array(t_address)dyn_storage": {
        "base": "t_address",
        "encoding": "dynamic_array",
        "label": "address[]",
        "numberOfBytes": "32"
      },
      "t_array(t_struct(Beneficiary)3866_storage)dyn_storage": {
        "base": "t_struct(Beneficiary)3866_storage",
        "encoding": "dynamic_array",
        "label": "struct Types.Beneficiary[]",
        "numberOfBytes": "32"
      },
      "t_array(t_uint256)49_storage": {
        "base": "t_uint256",
        "encoding": "inplace",
        "label": "uint256[49]",
        "numberOfBytes": "1568"
      },
      "t_array(t_uint256)50_storage": {
        "base": "t_uint256",
        "encoding": "inplace",
        "label": "uint256[50]",
        "numberOfBytes": "1600"
      },
      "t_bool": {
        "encoding": "inplace",
        "label": "bool",
        "numberOfBytes": "1"
      },
      "t_enum(TestamentStatus)3869": {
        "encoding": "inplace",
        "label": "enum Types.TestamentStatus",
        "numberOfBytes": "1"
      },
      "t_mapping(t_address,t_struct(DynamicVault)3895_storage)": {
        "encoding": "mapping",
        "key": "t_address",
        "label": "mapping(address => struct Types.DynamicVault)",
        "numberOfBytes": "32",
        "value": "t_struct(DynamicVault)3895_storage"
      },
      "t_string_storage": {
        "encoding": "bytes",
        "label": "string",
        "numberOfBytes": "32"
      },
      "t_struct(Beneficiary)3866_storage": {
        "encoding": "inplace",
        "label": "struct Types.Beneficiary",
        "members": [
          {
            "astId": 3861,
            "contract": "contracts/BoardWallets.sol:BoardWallet",
            "label": "name",
            "offset": 0,
            "slot": "0",
            "type": "t_string_storage"
          },
          {
            "astId": 3863,
            "contract": "contracts/BoardWallets.sol:BoardWallet",
            "label": "address_",
            "offset": 0,
            "slot": "1",
            "type": "t_address_payable"
          },
          {
            "astId": 3865,
            "contract": "contracts/BoardWallets.sol:BoardWallet",
            "label": "inheritancePercentage",
            "offset": 0,
            "slot": "2",
            "type": "t_uint128"
          }
        ],
        "numberOfBytes": "96"
      },
      "t_struct(DynamicVault)3895_storage": {
        "encoding": "inplace",
        "label": "struct Types.DynamicVault",
        "members": [
          {
            "astId": 3889,
            "contract": "contracts/BoardWallets.sol:BoardWallet",
            "label": "testament",
            "offset": 0,
            "slot": "0",
            "type": "t_struct(Testament)3886_storage"
          },
          {
            "astId": 3892,
            "contract": "contracts/BoardWallets.sol:BoardWallet",
            "label": "backupAddresses",
            "offset": 0,
            "slot": "5",
            "type": "t_array(t_address)dyn_storage"
          },
          {
            "astId": 3894,
            "contract": "contracts/BoardWallets.sol:BoardWallet",
            "label": "ESTABLISHMENT_FEE_RATE",
            "offset": 0,
            "slot": "6",
            "type": "t_uint128"
          }
        ],
        "numberOfBytes": "224"
      },
      "t_struct(Testament)3886_storage": {
        "encoding": "inplace",
        "label": "struct Types.Testament",
        "members": [
          {
            "astId": 3871,
            "contract": "contracts/BoardWallets.sol:BoardWallet",
            "label": "inactivityMaximum",
            "offset": 0,
            "slot": "0",
            "type": "t_uint128"
          },
          {
            "astId": 3873,
            "contract": "contracts/BoardWallets.sol:BoardWallet",
            "label": "proofOfLife",
            "offset": 16,
            "slot": "0",
            "type": "t_uint128"
          },
          {
            "astId": 3875,
            "contract": "contracts/BoardWallets.sol:BoardWallet",
            "label": "succeeded",
            "offset": 0,
            "slot": "1",
            "type": "t_bool"
          },
          {
            "astId": 3879,
            "contract": "contracts/BoardWallets.sol:BoardWallet",
            "label": "beneficiaries",
            "offset": 0,
            "slot": "2",
            "type": "t_array(t_struct(Beneficiary)3866_storage)dyn_storage"
          },
          {
            "astId": 3882,
            "contract": "contracts/BoardWallets.sol:BoardWallet",
            "label": "tokens",
            "offset": 0,
            "slot": "3",
            "type": "t_array(t_address)dyn_storage"
          },
          {
            "astId": 3885,
            "contract": "contracts/BoardWallets.sol:BoardWallet",
            "label": "status",
            "offset": 0,
            "slot": "4",
            "type": "t_enum(TestamentStatus)3869"
          }
        ],
        "numberOfBytes": "160"
      },
      "t_uint128": {
        "encoding": "inplace",
        "label": "uint128",
        "numberOfBytes": "16"
      },
      "t_uint256": {
        "encoding": "inplace",
        "label": "uint256",
        "numberOfBytes": "32"
      },
      "t_uint8": {
        "encoding": "inplace",
        "label": "uint8",
        "numberOfBytes": "1"
      }
    }
  }
}